{
  "_format": "hh-sol-artifact-1",
  "contractName": "Market",
  "sourceName": "contracts/Market.sol",
  "abi": [
    {
      "inputs": [
        {
          "internalType": "address",
          "name": "_token",
          "type": "address"
        }
      ],
      "stateMutability": "nonpayable",
      "type": "constructor"
    },
    {
      "anonymous": false,
      "inputs": [
        {
          "indexed": false,
          "internalType": "uint256",
          "name": "marketId",
          "type": "uint256"
        },
        {
          "indexed": false,
          "internalType": "address",
          "name": "user",
          "type": "address"
        },
        {
          "indexed": false,
          "internalType": "bool",
          "name": "choice",
          "type": "bool"
        },
        {
          "indexed": false,
          "internalType": "uint256",
          "name": "amount",
          "type": "uint256"
        }
      ],
      "name": "BetPlaced",
      "type": "event"
    },
    {
      "anonymous": false,
      "inputs": [
        {
          "indexed": false,
          "internalType": "uint256",
          "name": "marketId",
          "type": "uint256"
        },
        {
          "indexed": false,
          "internalType": "string",
          "name": "question",
          "type": "string"
        },
        {
          "indexed": false,
          "internalType": "uint256",
          "name": "deadline",
          "type": "uint256"
        }
      ],
      "name": "MarketCreated",
      "type": "event"
    },
    {
      "anonymous": false,
      "inputs": [
        {
          "indexed": false,
          "internalType": "uint256",
          "name": "marketId",
          "type": "uint256"
        },
        {
          "indexed": false,
          "internalType": "bool",
          "name": "outcome",
          "type": "bool"
        }
      ],
      "name": "MarketResolved",
      "type": "event"
    },
    {
      "inputs": [
        {
          "internalType": "uint256",
          "name": "_marketId",
          "type": "uint256"
        }
      ],
      "name": "claimRewards",
      "outputs": [],
      "stateMutability": "nonpayable",
      "type": "function"
    },
    {
      "inputs": [
        {
          "internalType": "string",
          "name": "_question",
          "type": "string"
        },
        {
          "internalType": "uint256",
          "name": "_deadline",
          "type": "uint256"
        }
      ],
      "name": "createMarket",
      "outputs": [],
      "stateMutability": "nonpayable",
      "type": "function"
    },
    {
      "inputs": [],
      "name": "marketCount",
      "outputs": [
        {
          "internalType": "uint256",
          "name": "",
          "type": "uint256"
        }
      ],
      "stateMutability": "view",
      "type": "function"
    },
    {
      "inputs": [
        {
          "internalType": "uint256",
          "name": "",
          "type": "uint256"
        }
      ],
      "name": "markets",
      "outputs": [
        {
          "internalType": "string",
          "name": "question",
          "type": "string"
        },
        {
          "internalType": "uint256",
          "name": "deadline",
          "type": "uint256"
        },
        {
          "internalType": "uint256",
          "name": "yesBets",
          "type": "uint256"
        },
        {
          "internalType": "uint256",
          "name": "noBets",
          "type": "uint256"
        },
        {
          "internalType": "bool",
          "name": "resolved",
          "type": "bool"
        },
        {
          "internalType": "bool",
          "name": "outcome",
          "type": "bool"
        }
      ],
      "stateMutability": "view",
      "type": "function"
    },
    {
      "inputs": [],
      "name": "owner",
      "outputs": [
        {
          "internalType": "address",
          "name": "",
          "type": "address"
        }
      ],
      "stateMutability": "view",
      "type": "function"
    },
    {
      "inputs": [
        {
          "internalType": "uint256",
          "name": "_marketId",
          "type": "uint256"
        },
        {
          "internalType": "bool",
          "name": "_choice",
          "type": "bool"
        },
        {
          "internalType": "uint256",
          "name": "_amount",
          "type": "uint256"
        }
      ],
      "name": "placeBet",
      "outputs": [],
      "stateMutability": "nonpayable",
      "type": "function"
    },
    {
      "inputs": [
        {
          "internalType": "uint256",
          "name": "_marketId",
          "type": "uint256"
        },
        {
          "internalType": "bool",
          "name": "_outcome",
          "type": "bool"
        }
      ],
      "name": "resolveMarket",
      "outputs": [],
      "stateMutability": "nonpayable",
      "type": "function"
    },
    {
      "inputs": [],
      "name": "token",
      "outputs": [
        {
          "internalType": "contract FriendBucks",
          "name": "",
          "type": "address"
        }
      ],
      "stateMutability": "view",
      "type": "function"
    }
  ],
  "bytecode": "0x60806040523480156200001157600080fd5b506040516200195d3803806200195d833981810160405281019062000037919062000129565b806000806101000a81548173ffffffffffffffffffffffffffffffffffffffff021916908373ffffffffffffffffffffffffffffffffffffffff16021790555033600160006101000a81548173ffffffffffffffffffffffffffffffffffffffff021916908373ffffffffffffffffffffffffffffffffffffffff160217905550506200015b565b600080fd5b600073ffffffffffffffffffffffffffffffffffffffff82169050919050565b6000620000f182620000c4565b9050919050565b6200010381620000e4565b81146200010f57600080fd5b50565b6000815190506200012381620000f8565b92915050565b600060208284031215620001425762000141620000bf565b5b6000620001528482850162000112565b91505092915050565b6117f2806200016b6000396000f3fe608060405234801561001057600080fd5b50600436106100885760003560e01c80638da5cb5b1161005b5780638da5cb5b146100fd578063b1283e771461011b578063ec97908214610150578063fc0c546a1461016e57610088565b80630962ef791461008d5780631a38cac6146100a957806357bde446146100c5578063883c84c1146100e1575b600080fd5b6100a760048036038101906100a29190610a97565b61018c565b005b6100c360048036038101906100be9190610afc565b610418565b005b6100df60048036038101906100da9190610b4f565b6106df565b005b6100fb60048036038101906100f69190610cd5565b61084f565b005b61010561091f565b6040516101129190610d72565b60405180910390f35b61013560048036038101906101309190610a97565b610945565b60405161014796959493929190610e2a565b60405180910390f35b610158610a23565b6040516101659190610e92565b60405180910390f35b610176610a29565b6040516101839190610f0c565b60405180910390f35b60006002600083815260200190815260200160002090508060040160009054906101000a900460ff166101f4576040517f08c379a00000000000000000000000000000000000000000000000000000000081526004016101eb90610f73565b60405180910390fd5b60008160040160019054906101000a900460ff1615610256578160050160003373ffffffffffffffffffffffffffffffffffffffff1673ffffffffffffffffffffffffffffffffffffffff16815260200190815260200160002054905061029b565b8160060160003373ffffffffffffffffffffffffffffffffffffffff1673ffffffffffffffffffffffffffffffffffffffff1681526020019081526020016000205490505b600081116102de576040517f08c379a00000000000000000000000000000000000000000000000000000000081526004016102d590610fdf565b60405180910390fd5b60008054906101000a900473ffffffffffffffffffffffffffffffffffffffff1673ffffffffffffffffffffffffffffffffffffffff1663a9059cbb33600284610328919061102e565b6040518363ffffffff1660e01b8152600401610345929190611070565b6020604051808303816000875af1158015610364573d6000803e3d6000fd5b505050506040513d601f19601f8201168201806040525081019061038891906110ae565b508160050160003373ffffffffffffffffffffffffffffffffffffffff1673ffffffffffffffffffffffffffffffffffffffff168152602001908152602001600020600090558160060160003373ffffffffffffffffffffffffffffffffffffffff1673ffffffffffffffffffffffffffffffffffffffff16815260200190815260200160002060009055505050565b60008311801561042a57506003548311155b610469576040517f08c379a000000000000000000000000000000000000000000000000000000000815260040161046090611127565b60405180910390fd5b6000600260008581526020019081526020016000209050806001015442106104c6576040517f08c379a00000000000000000000000000000000000000000000000000000000081526004016104bd90611193565b60405180910390fd5b60008211610509576040517f08c379a000000000000000000000000000000000000000000000000000000000815260040161050090611225565b60405180910390fd5b60008054906101000a900473ffffffffffffffffffffffffffffffffffffffff1673ffffffffffffffffffffffffffffffffffffffff166323b872dd3330856040518463ffffffff1660e01b815260040161056693929190611245565b6020604051808303816000875af1158015610585573d6000803e3d6000fd5b505050506040513d601f19601f820116820180604052508101906105a991906110ae565b50821561062857818160050160003373ffffffffffffffffffffffffffffffffffffffff1673ffffffffffffffffffffffffffffffffffffffff1681526020019081526020016000206000828254610601919061127c565b925050819055508181600201600082825461061c919061127c565b9250508190555061069c565b818160060160003373ffffffffffffffffffffffffffffffffffffffff1673ffffffffffffffffffffffffffffffffffffffff1681526020019081526020016000206000828254610679919061127c565b9250508190555081816003016000828254610694919061127c565b925050819055505b7f4af71b021e799c62c158bd54636ca8da2fa26115a21a2dc6efe486ec104fd15f843385856040516106d194939291906112b0565b60405180910390a150505050565b600160009054906101000a900473ffffffffffffffffffffffffffffffffffffffff1673ffffffffffffffffffffffffffffffffffffffff163373ffffffffffffffffffffffffffffffffffffffff161461076f576040517f08c379a000000000000000000000000000000000000000000000000000000000815260040161076690611341565b60405180910390fd5b60006002600084815260200190815260200160002090508060040160009054906101000a900460ff16156107d8576040517f08c379a00000000000000000000000000000000000000000000000000000000081526004016107cf906113ad565b60405180910390fd5b60018160040160006101000a81548160ff021916908315150217905550818160040160016101000a81548160ff0219169083151502179055507f4927fe38919783250023d27e65a3e56b6b5c3e49364e51674a41ef08d62460d983836040516108429291906113cd565b60405180910390a1505050565b428111610891576040517f08c379a000000000000000000000000000000000000000000000000000000000815260040161088890611442565b60405180910390fd5b600360008154809291906108a490611462565b919050555060006002600060035481526020019081526020016000209050828160000190816108d391906116ac565b508181600101819055507f2d1e9ad45dbe8e898e0374deebf2a661b2ae7c1855d2a29507d584c35d287c7560035484846040516109129392919061177e565b60405180910390a1505050565b600160009054906101000a900473ffffffffffffffffffffffffffffffffffffffff1681565b6002602052806000526040600020600091509050806000018054610968906114d9565b80601f0160208091040260200160405190810160405280929190818152602001828054610994906114d9565b80156109e15780601f106109b6576101008083540402835291602001916109e1565b820191906000526020600020905b8154815290600101906020018083116109c457829003601f168201915b5050505050908060010154908060020154908060030154908060040160009054906101000a900460ff16908060040160019054906101000a900460ff16905086565b60035481565b60008054906101000a900473ffffffffffffffffffffffffffffffffffffffff1681565b6000604051905090565b600080fd5b600080fd5b6000819050919050565b610a7481610a61565b8114610a7f57600080fd5b50565b600081359050610a9181610a6b565b92915050565b600060208284031215610aad57610aac610a57565b5b6000610abb84828501610a82565b91505092915050565b60008115159050919050565b610ad981610ac4565b8114610ae457600080fd5b50565b600081359050610af681610ad0565b92915050565b600080600060608486031215610b1557610b14610a57565b5b6000610b2386828701610a82565b9350506020610b3486828701610ae7565b9250506040610b4586828701610a82565b9150509250925092565b60008060408385031215610b6657610b65610a57565b5b6000610b7485828601610a82565b9250506020610b8585828601610ae7565b9150509250929050565b600080fd5b600080fd5b6000601f19601f8301169050919050565b7f4e487b7100000000000000000000000000000000000000000000000000000000600052604160045260246000fd5b610be282610b99565b810181811067ffffffffffffffff82111715610c0157610c00610baa565b5b80604052505050565b6000610c14610a4d565b9050610c208282610bd9565b919050565b600067ffffffffffffffff821115610c4057610c3f610baa565b5b610c4982610b99565b9050602081019050919050565b82818337600083830152505050565b6000610c78610c7384610c25565b610c0a565b905082815260208101848484011115610c9457610c93610b94565b5b610c9f848285610c56565b509392505050565b600082601f830112610cbc57610cbb610b8f565b5b8135610ccc848260208601610c65565b91505092915050565b60008060408385031215610cec57610ceb610a57565b5b600083013567ffffffffffffffff811115610d0a57610d09610a5c565b5b610d1685828601610ca7565b9250506020610d2785828601610a82565b9150509250929050565b600073ffffffffffffffffffffffffffffffffffffffff82169050919050565b6000610d5c82610d31565b9050919050565b610d6c81610d51565b82525050565b6000602082019050610d876000830184610d63565b92915050565b600081519050919050565b600082825260208201905092915050565b60005b83811015610dc7578082015181840152602081019050610dac565b60008484015250505050565b6000610dde82610d8d565b610de88185610d98565b9350610df8818560208601610da9565b610e0181610b99565b840191505092915050565b610e1581610a61565b82525050565b610e2481610ac4565b82525050565b600060c0820190508181036000830152610e448189610dd3565b9050610e536020830188610e0c565b610e606040830187610e0c565b610e6d6060830186610e0c565b610e7a6080830185610e1b565b610e8760a0830184610e1b565b979650505050505050565b6000602082019050610ea76000830184610e0c565b92915050565b6000819050919050565b6000610ed2610ecd610ec884610d31565b610ead565b610d31565b9050919050565b6000610ee482610eb7565b9050919050565b6000610ef682610ed9565b9050919050565b610f0681610eeb565b82525050565b6000602082019050610f216000830184610efd565b92915050565b7f4d61726b6574206e6f74207265736f6c76656400000000000000000000000000600082015250565b6000610f5d601383610d98565b9150610f6882610f27565b602082019050919050565b60006020820190508181036000830152610f8c81610f50565b9050919050565b7f4e6f2077696e6e696e6773000000000000000000000000000000000000000000600082015250565b6000610fc9600b83610d98565b9150610fd482610f93565b602082019050919050565b60006020820190508181036000830152610ff881610fbc565b9050919050565b7f4e487b7100000000000000000000000000000000000000000000000000000000600052601160045260246000fd5b600061103982610a61565b915061104483610a61565b925082820261105281610a61565b9150828204841483151761106957611068610fff565b5b5092915050565b60006040820190506110856000830185610d63565b6110926020830184610e0c565b9392505050565b6000815190506110a881610ad0565b92915050565b6000602082840312156110c4576110c3610a57565b5b60006110d284828501611099565b91505092915050565b7f496e76616c6964206d61726b6574204944000000000000000000000000000000600082015250565b6000611111601183610d98565b915061111c826110db565b602082019050919050565b6000602082019050818103600083015261114081611104565b9050919050565b7f4d61726b657420636c6f73656400000000000000000000000000000000000000600082015250565b600061117d600d83610d98565b915061118882611147565b602082019050919050565b600060208201905081810360008301526111ac81611170565b9050919050565b7f42657420616d6f756e74206d7573742062652067726561746572207468616e2060008201527f3000000000000000000000000000000000000000000000000000000000000000602082015250565b600061120f602183610d98565b915061121a826111b3565b604082019050919050565b6000602082019050818103600083015261123e81611202565b9050919050565b600060608201905061125a6000830186610d63565b6112676020830185610d63565b6112746040830184610e0c565b949350505050565b600061128782610a61565b915061129283610a61565b92508282019050808211156112aa576112a9610fff565b5b92915050565b60006080820190506112c56000830187610e0c565b6112d26020830186610d63565b6112df6040830185610e1b565b6112ec6060830184610e0c565b95945050505050565b7f4f6e6c79206f776e65722063616e207265736f6c766500000000000000000000600082015250565b600061132b601683610d98565b9150611336826112f5565b602082019050919050565b6000602082019050818103600083015261135a8161131e565b9050919050565b7f416c7265616479207265736f6c76656400000000000000000000000000000000600082015250565b6000611397601083610d98565b91506113a282611361565b602082019050919050565b600060208201905081810360008301526113c68161138a565b9050919050565b60006040820190506113e26000830185610e0c565b6113ef6020830184610e1b565b9392505050565b7f446561646c696e65206d75737420626520696e20746865206675747572650000600082015250565b600061142c601e83610d98565b9150611437826113f6565b602082019050919050565b6000602082019050818103600083015261145b8161141f565b9050919050565b600061146d82610a61565b91507fffffffffffffffffffffffffffffffffffffffffffffffffffffffffffffffff820361149f5761149e610fff565b5b600182019050919050565b7f4e487b7100000000000000000000000000000000000000000000000000000000600052602260045260246000fd5b600060028204905060018216806114f157607f821691505b602082108103611504576115036114aa565b5b50919050565b60008190508160005260206000209050919050565b60006020601f8301049050919050565b600082821b905092915050565b60006008830261156c7fffffffffffffffffffffffffffffffffffffffffffffffffffffffffffffffff8261152f565b611576868361152f565b95508019841693508086168417925050509392505050565b60006115a96115a461159f84610a61565b610ead565b610a61565b9050919050565b6000819050919050565b6115c38361158e565b6115d76115cf826115b0565b84845461153c565b825550505050565b600090565b6115ec6115df565b6115f78184846115ba565b505050565b5b8181101561161b576116106000826115e4565b6001810190506115fd565b5050565b601f821115611660576116318161150a565b61163a8461151f565b81016020851015611649578190505b61165d6116558561151f565b8301826115fc565b50505b505050565b600082821c905092915050565b600061168360001984600802611665565b1980831691505092915050565b600061169c8383611672565b9150826002028217905092915050565b6116b582610d8d565b67ffffffffffffffff8111156116ce576116cd610baa565b5b6116d882546114d9565b6116e382828561161f565b600060209050601f8311600181146117165760008415611704578287015190505b61170e8582611690565b865550611776565b601f1984166117248661150a565b60005b8281101561174c57848901518255600182019150602085019450602081019050611727565b868310156117695784890151611765601f891682611672565b8355505b6001600288020188555050505b505050505050565b60006060820190506117936000830186610e0c565b81810360208301526117a58185610dd3565b90506117b46040830184610e0c565b94935050505056fea26469706673582212206f87efa3e15ba1e4d188ec9d14bca9b0da8b1072ddbbb3dcf2d6c951ccbc779c64736f6c63430008140033",
  "linkReferences": {},
  "deployedLinkReferences": {}
}